{
  "contractName": "OrderContract",
  "abi": [
    {
      "inputs": [
        {
          "internalType": "uint256",
          "name": "",
          "type": "uint256"
        }
      ],
      "name": "ord",
      "outputs": [
        {
          "internalType": "uint256",
          "name": "order_id",
          "type": "uint256"
        },
        {
          "internalType": "string",
          "name": "name",
          "type": "string"
        },
        {
          "internalType": "uint256",
          "name": "cost",
          "type": "uint256"
        },
        {
          "internalType": "string",
          "name": "home_address",
          "type": "string"
        }
      ],
      "stateMutability": "view",
      "type": "function",
      "constant": true
    },
    {
      "inputs": [
        {
          "internalType": "uint256",
          "name": "_id",
          "type": "uint256"
        },
        {
          "internalType": "string",
          "name": "_name",
          "type": "string"
        },
        {
          "internalType": "uint256",
          "name": "_cost",
          "type": "uint256"
        },
        {
          "internalType": "string",
          "name": "_address",
          "type": "string"
        }
      ],
      "name": "createOrder",
      "outputs": [],
      "stateMutability": "nonpayable",
      "type": "function"
    },
    {
      "inputs": [],
      "name": "getOrderDetails",
      "outputs": [
        {
          "components": [
            {
              "internalType": "uint256",
              "name": "order_id",
              "type": "uint256"
            },
            {
              "internalType": "string",
              "name": "name",
              "type": "string"
            },
            {
              "internalType": "uint256",
              "name": "cost",
              "type": "uint256"
            },
            {
              "internalType": "string",
              "name": "home_address",
              "type": "string"
            }
          ],
          "internalType": "struct OrderContract.Order[]",
          "name": "",
          "type": "tuple[]"
        }
      ],
      "stateMutability": "view",
      "type": "function",
      "constant": true
    },
    {
      "inputs": [
        {
          "internalType": "uint256",
          "name": "_id",
          "type": "uint256"
        },
        {
          "internalType": "string",
          "name": "_name",
          "type": "string"
        },
        {
          "internalType": "string",
          "name": "_homeAdd",
          "type": "string"
        }
      ],
      "name": "updateOrderDetails",
      "outputs": [],
      "stateMutability": "nonpayable",
      "type": "function"
    },
    {
      "inputs": [
        {
          "internalType": "uint256",
          "name": "_id",
          "type": "uint256"
        }
      ],
      "name": "getOrderDetailsById",
      "outputs": [
        {
          "components": [
            {
              "internalType": "uint256",
              "name": "order_id",
              "type": "uint256"
            },
            {
              "internalType": "string",
              "name": "name",
              "type": "string"
            },
            {
              "internalType": "uint256",
              "name": "cost",
              "type": "uint256"
            },
            {
              "internalType": "string",
              "name": "home_address",
              "type": "string"
            }
          ],
          "internalType": "struct OrderContract.Order",
          "name": "",
          "type": "tuple"
        }
      ],
      "stateMutability": "view",
      "type": "function",
      "constant": true
    },
    {
      "inputs": [
        {
          "internalType": "uint256",
          "name": "_id",
          "type": "uint256"
        }
      ],
      "name": "deleteOrderDetails",
      "outputs": [],
      "stateMutability": "nonpayable",
      "type": "function"
    }
  ],
  "bytecode": "0x608060405234801561001057600080fd5b506112af806100206000396000f3fe608060405234801561001057600080fd5b50600436106100625760003560e01c80633062b48a14610067578063757caf9a14610083578063a29247951461009f578063b4233e9f146100d2578063dce74594146100f0578063f1c48fd61461010c575b600080fd5b610081600480360381019061007c9190610944565b61013c565b005b61009d60048036038101906100989190610ab7565b61022b565b005b6100b960048036038101906100b49190610944565b610325565b6040516100c99493929190610be4565b60405180910390f35b6100da610475565b6040516100e79190610dbc565b60405180910390f35b61010a60048036038101906101059190610dde565b61060c565b005b61012660048036038101906101219190610944565b610710565b6040516101339190610ed3565b60405180910390f35b600160008281526020019081526020016000206000808201600090556001820160006101689190610875565b60028201600090556003820160006101809190610875565b505060005b6000805490508110156102275781600082815481106101a7576101a6610ef5565b5b9060005260206000209060040201600001540361021457600081815481106101d2576101d1610ef5565b5b90600052602060002090600402016000808201600090556001820160006101f99190610875565b60028201600090556003820160006102119190610875565b50505b808061021f90610f53565b915050610185565b5050565b6102336108b5565b848160000181815250508381602001819052508281604001818152505081816060018190525060008190806001815401808255809150506001900390600052602060002090600402016000909190919091506000820151816000015560208201518160010190816102a491906111a7565b506040820151816002015560608201518160030190816102c491906111a7565b50505080600160008781526020019081526020016000206000820151816000015560208201518160010190816102fa91906111a7565b5060408201518160020155606082015181600301908161031a91906111a7565b509050505050505050565b6000818154811061033557600080fd5b906000526020600020906004020160009150905080600001549080600101805461035e90610fca565b80601f016020809104026020016040519081016040528092919081815260200182805461038a90610fca565b80156103d75780601f106103ac576101008083540402835291602001916103d7565b820191906000526020600020905b8154815290600101906020018083116103ba57829003601f168201915b5050505050908060020154908060030180546103f290610fca565b80601f016020809104026020016040519081016040528092919081815260200182805461041e90610fca565b801561046b5780601f106104405761010080835404028352916020019161046b565b820191906000526020600020905b81548152906001019060200180831161044e57829003601f168201915b5050505050905084565b60606000805480602002602001604051908101604052809291908181526020016000905b828210156106035783829060005260206000209060040201604051806080016040529081600082015481526020016001820180546104d690610fca565b80601f016020809104026020016040519081016040528092919081815260200182805461050290610fca565b801561054f5780601f106105245761010080835404028352916020019161054f565b820191906000526020600020905b81548152906001019060200180831161053257829003601f168201915b505050505081526020016002820154815260200160038201805461057290610fca565b80601f016020809104026020016040519081016040528092919081815260200182805461059e90610fca565b80156105eb5780601f106105c0576101008083540402835291602001916105eb565b820191906000526020600020905b8154815290600101906020018083116105ce57829003601f168201915b50505050508152505081526020019060010190610499565b50505050905090565b60005b6000805490508110156106c257836000828154811061063157610630610ef5565b5b906000526020600020906004020160000154036106af57826000828154811061065d5761065c610ef5565b5b9060005260206000209060040201600101908161067a91906111a7565b5081600082815481106106905761068f610ef5565b5b906000526020600020906004020160030190816106ad91906111a7565b505b80806106ba90610f53565b91505061060f565b50816001600085815260200190815260200160002060010190816106e691906111a7565b508060016000858152602001908152602001600020600301908161070a91906111a7565b50505050565b6107186108b5565b600160008381526020019081526020016000206040518060800160405290816000820154815260200160018201805461075090610fca565b80601f016020809104026020016040519081016040528092919081815260200182805461077c90610fca565b80156107c95780601f1061079e576101008083540402835291602001916107c9565b820191906000526020600020905b8154815290600101906020018083116107ac57829003601f168201915b50505050508152602001600282015481526020016003820180546107ec90610fca565b80601f016020809104026020016040519081016040528092919081815260200182805461081890610fca565b80156108655780601f1061083a57610100808354040283529160200191610865565b820191906000526020600020905b81548152906001019060200180831161084857829003601f168201915b5050505050815250509050919050565b50805461088190610fca565b6000825580601f1061089357506108b2565b601f0160209004906000526020600020908101906108b191906108dd565b5b50565b6040518060800160405280600081526020016060815260200160008152602001606081525090565b5b808211156108f65760008160009055506001016108de565b5090565b6000604051905090565b600080fd5b600080fd5b6000819050919050565b6109218161090e565b811461092c57600080fd5b50565b60008135905061093e81610918565b92915050565b60006020828403121561095a57610959610904565b5b60006109688482850161092f565b91505092915050565b600080fd5b600080fd5b6000601f19601f8301169050919050565b7f4e487b7100000000000000000000000000000000000000000000000000000000600052604160045260246000fd5b6109c48261097b565b810181811067ffffffffffffffff821117156109e3576109e261098c565b5b80604052505050565b60006109f66108fa565b9050610a0282826109bb565b919050565b600067ffffffffffffffff821115610a2257610a2161098c565b5b610a2b8261097b565b9050602081019050919050565b82818337600083830152505050565b6000610a5a610a5584610a07565b6109ec565b905082815260208101848484011115610a7657610a75610976565b5b610a81848285610a38565b509392505050565b600082601f830112610a9e57610a9d610971565b5b8135610aae848260208601610a47565b91505092915050565b60008060008060808587031215610ad157610ad0610904565b5b6000610adf8782880161092f565b945050602085013567ffffffffffffffff811115610b0057610aff610909565b5b610b0c87828801610a89565b9350506040610b1d8782880161092f565b925050606085013567ffffffffffffffff811115610b3e57610b3d610909565b5b610b4a87828801610a89565b91505092959194509250565b610b5f8161090e565b82525050565b600081519050919050565b600082825260208201905092915050565b60005b83811015610b9f578082015181840152602081019050610b84565b60008484015250505050565b6000610bb682610b65565b610bc08185610b70565b9350610bd0818560208601610b81565b610bd98161097b565b840191505092915050565b6000608082019050610bf96000830187610b56565b8181036020830152610c0b8186610bab565b9050610c1a6040830185610b56565b8181036060830152610c2c8184610bab565b905095945050505050565b600081519050919050565b600082825260208201905092915050565b6000819050602082019050919050565b610c6c8161090e565b82525050565b600082825260208201905092915050565b6000610c8e82610b65565b610c988185610c72565b9350610ca8818560208601610b81565b610cb18161097b565b840191505092915050565b6000608083016000830151610cd46000860182610c63565b5060208301518482036020860152610cec8282610c83565b9150506040830151610d016040860182610c63565b5060608301518482036060860152610d198282610c83565b9150508091505092915050565b6000610d328383610cbc565b905092915050565b6000602082019050919050565b6000610d5282610c37565b610d5c8185610c42565b935083602082028501610d6e85610c53565b8060005b85811015610daa5784840389528151610d8b8582610d26565b9450610d9683610d3a565b925060208a01995050600181019050610d72565b50829750879550505050505092915050565b60006020820190508181036000830152610dd68184610d47565b905092915050565b600080600060608486031215610df757610df6610904565b5b6000610e058682870161092f565b935050602084013567ffffffffffffffff811115610e2657610e25610909565b5b610e3286828701610a89565b925050604084013567ffffffffffffffff811115610e5357610e52610909565b5b610e5f86828701610a89565b9150509250925092565b6000608083016000830151610e816000860182610c63565b5060208301518482036020860152610e998282610c83565b9150506040830151610eae6040860182610c63565b5060608301518482036060860152610ec68282610c83565b9150508091505092915050565b60006020820190508181036000830152610eed8184610e69565b905092915050565b7f4e487b7100000000000000000000000000000000000000000000000000000000600052603260045260246000fd5b7f4e487b7100000000000000000000000000000000000000000000000000000000600052601160045260246000fd5b6000610f5e8261090e565b91507fffffffffffffffffffffffffffffffffffffffffffffffffffffffffffffffff8203610f9057610f8f610f24565b5b600182019050919050565b7f4e487b7100000000000000000000000000000000000000000000000000000000600052602260045260246000fd5b60006002820490506001821680610fe257607f821691505b602082108103610ff557610ff4610f9b565b5b50919050565b60008190508160005260206000209050919050565b60006020601f8301049050919050565b600082821b905092915050565b60006008830261105d7fffffffffffffffffffffffffffffffffffffffffffffffffffffffffffffffff82611020565b6110678683611020565b95508019841693508086168417925050509392505050565b6000819050919050565b60006110a461109f61109a8461090e565b61107f565b61090e565b9050919050565b6000819050919050565b6110be83611089565b6110d26110ca826110ab565b84845461102d565b825550505050565b600090565b6110e76110da565b6110f28184846110b5565b505050565b5b818110156111165761110b6000826110df565b6001810190506110f8565b5050565b601f82111561115b5761112c81610ffb565b61113584611010565b81016020851015611144578190505b61115861115085611010565b8301826110f7565b50505b505050565b600082821c905092915050565b600061117e60001984600802611160565b1980831691505092915050565b6000611197838361116d565b9150826002028217905092915050565b6111b082610b65565b67ffffffffffffffff8111156111c9576111c861098c565b5b6111d38254610fca565b6111de82828561111a565b600060209050601f83116001811461121157600084156111ff578287015190505b611209858261118b565b865550611271565b601f19841661121f86610ffb565b60005b8281101561124757848901518255600182019150602085019450602081019050611222565b868310156112645784890151611260601f89168261116d565b8355505b6001600288020188555050505b50505050505056fea264697066735822122083fe5462e4a9ec3a23e2a0499ecdd54edbc4d60a335c7a4879aabea3b628476a64736f6c63430008130033",
  "immutableReferences": {},
  "source": "// SPDX-License-Identifier: MIT\npragma solidity ^0.8.13;\n\ncontract OrderContract {\n\n  struct Order {\n    uint order_id;\n    string name;\n    uint cost;\n    string home_address;\n  }\n\n  Order[] public ord;\n\n  mapping(uint => Order) orders;\n\n  function createOrder(uint _id, string memory _name, uint _cost, string memory _address) public {\n    Order memory o;\n    o.order_id = _id;\n    o.name = _name;\n    o.cost = _cost;\n    o.home_address = _address;\n    ord.push(o);\n    orders[_id] = o;\n  }\n\n  function getOrderDetails() external view returns(Order[] memory) {\n    return ord;\n  }\n\n  function updateOrderDetails(uint _id, string memory _name, string memory _homeAdd) public {\n    for (uint i = 0; i < ord.length; i++) {\n      if(ord[i].order_id == _id){\n        ord[i].name = _name;\n        ord[i].home_address = _homeAdd;\n      }\n    }\n    orders[_id].name = _name;\n    orders[_id].home_address = _homeAdd;\n  }\n\n  function getOrderDetailsById(uint _id) public view returns(Order memory){\n    return orders[_id];\n  }\n\n  function deleteOrderDetails(uint _id) public {\n    delete orders[_id];\n    for(uint i=0;i<ord.length;i++){\n      if(ord[i].order_id==_id){\n        delete ord[i];\n      }\n  }\n\n}\n}\n",
  "sourcePath": "/home/sabya/Order-Management-system/contracts/OrderContract.sol",
  "compiler": {
    "name": "solc",
    "version": "0.8.19+commit.7dd6d404.Emscripten.clang"
  },
  "schemaVersion": "3.4.13",
  "updatedAt": "2023-03-22T10:53:52.744Z",
  "networkType": "ethereum",
  "devdoc": {
    "kind": "dev",
    "methods": {},
    "version": 1
  },
  "userdoc": {
    "kind": "user",
    "methods": {},
    "version": 1
  }
}